:1000000001308A00B02900000D10F630EC37F21EE6
:100010002526751000002C30840083130008031976
:100020001E280630F800F701F70B1428F80B1328E8
:100030007B30F700F70B1A28800B11280800330ECD
:10004000F039F7000F300805770488000000081425
:100050000330F700F70B2A28081008000808F700FB
:10006000080E0F39F80008008316081088100811D0
:10007000831288100F3083160805F0388800831229
:1000800008150000081400002E207808B30008109E
:10009000000008144B284C2800002E207808B200DD
:1000A00008100F308316080588008312330EF700FE
:1000B000F030F70577083204F8007808B200B21B78
:1000C0003A28301C881030188814000008110000ED
:1000D0000810310EB2000F30B2053208B3001F20F5
:1000E00031080F39B200B3001F2008002830A300E8
:1000F0000C30A4000130A5000630A60008108810BE
:1001000008110F30831608058800081088100811A0
:100110000F308312AC000B200130A2002208033CF8
:10012000031C9A280330B3001F200530AC000B20BD
:10013000A20A8E280230B3001F200530AC000B202D
:10014000A2012208033C031CB128233022078400AB
:1001500083130008A700B0012708B1003420A20AC9
:10016000A1288A110A12C8292D0BB728BA284030B5
:10017000AE00BB28AE0101302C02AE072E0880383D
:10018000AF00B0012F08B100342008002B08073A57
:100190000319D4280B3A0319D928063A0319E12880
:1001A000023A0319E728EC280130AC00AD00B42076
:1001B000F128B0010130B10034200230AC000B2036
:1001C000F1280130AC000230AD00B420F128B001BC
:1001D0001030B1003420F1280130B0002B08B100FC
:1001E000342008000B08A3008B13831603178C1709
:1001F0000C140000000083120313A31B8B170318B9
:10020000292903170C087F390313A30003170D08CE
:100210000313A40003170F080313A5002308AB0062
:10022000C620240803178D000313250803178F0029
:1002300003130B08A6008B13831603178C170C14DB
:100240000000000083120313A61B8B17A20B2929A1
:10025000482903170C0D0E0D7F390313A300031754
:100260000D080313A40003170F080313A5002308A8
:10027000AB00C620240803178D00031325080317BD
:100280008F008D0A03198F0A03100313A20BF228A3
:100290008A110A12E629AA010408A9002A10831B60
:1002A0002A14230EF038A500A507E23EA600323E30
:1002B000A80023080F39A607A607A807E93EA7004C
:1002C000A707A707220E0F39A707A807A70DA80D94
:1002D000A809A80D22080F39A807A50D0730A4000A
:1002E0000A30A807A703031C7129A707A603031C4C
:1002F0007529A607A503031C7929A507A403031CD8
:100300007D292430840083130730290529138407AD
:1003100028300402031929170008F700031D982943
:10032000291B9829291AAA29A919982920309B291B
:10033000A91529123030F707A3010408A2002310E1
:10034000831B23147708AB00C62022088400831384
:1003500023188317840A291F88298A110A12ED2974
:1003600003081F39830083161F149F141F159F1144
:1003700007309C0083131F149F141F159F151F1710
:1003800083121F139F1783169F1783121F1476283B
:100390003230AC000B201F151F19CC291E08F900A4
:1003A00083161E08F80079088312A1007808A000BF
:1003B0000130AC00AD00B420043003178D000030D4
:1003C0008F00031008300313A200F22810308400BD
:1003D0002108A3002008A2004B292030AB00C62032
:0403E000C8296300C5
:02400E00723FFF
:00000001FF
;PIC16F877A
;CRC=590D  CREATED="04-mar.-22 16:58"
