:1000000056EF03F0200D20766F6C74616A653D2514
:1000100066200000EA6A160EE96EEF500EE0010E4F
:10002000016E006A002EFED7012EFBD74A0E006E2D
:10003000002EFED700D0EF2EF2D712001D38F00BA5
:10004000006E0F0E8C1400108C6E00008C8000D09F
:100050008C9012008350006E00380F0B016E12005E
:100060000F0E9514F009956E8C8400008C800000B2
:10007000F1DF01C01DF08C9000008C800000EADFF1
:1000800001C01CF08C900F0E9514956E1D38006EFB
:10009000F00E001600501C10016E54EF00F0959009
:1000A000959295948C92DCD701C01CF001BEFBD7D1
:1000B0008C921AB08C8200008C9400008C901B38BB
:1000C0001C6E0F0E1C161CC01DF0B8DF1B500F0B52
:1000D0001C6E1D6EB3DF1200280E096E0C0E0A6E28
:1000E000010E0B6E060E0C6E8C908C928C940F0E83
:1000F0009514956E9590959295940F0E166E8ADFD5
:10010000010E086E0850030808E3030E1D6E96DF0B
:10011000050E166E7FDF082AF5D7020E1D6E8EDFE4
:10012000050E166E77DF086A085003080DE3036AB0
:100130000850090FE96E000E0320EA6EEFCF1BF0A6
:100140001A6AADDF082AF0D769EF03F08E0E006E51
:100150000BC001F00AC002F0036A015209E102C0BB
:1001600001F0026A080E005E015202E1006A08D046
:10017000D89001BE04D0023601360006F9D7019EA0
:100180007CEF03F01550D8B471D0006E1950D8B47C
:100190006DD0002604E3810E002668E204D07F0EB5
:1001A000005E64E363E016C01DF01A501D1A168E3F
:1001B0001A8E18501C02F4CF1FF017501B02F4CFF8
:1001C00003F0F3CF1EF01C02F3501F26F4501E2242
:1001D000000E032218501B02F3501F26F4501E225B
:1001E000000E026A0322022216501C02F3501E2641
:1001F000F4500322000E022216501B02F350032675
:10020000F4500222000E016A012218501A02F35023
:100210001E26F4500322000E0222012217501A0259
:10022000F3500326F4500222000E012216501A0247
:10023000F3500226F4500122002A01BE05D01E36DA
:100240000336023601360006000E1EAE0AD0032A1F
:1002500002220122015005E1025003E1035001E1B5
:10026000002A1DBE018E1DAE019E04D0006A016AE7
:10027000026A036A12000C50D8B4A5D0186E105050
:10028000D8B4A1D0185E05E37F0E1826D8B09BD055
:1002900006D0810E185ED8A096D0D8B494D018C0DD
:1002A00000F0016A026A036A176A0DC016F0168E22
:1002B0000EC015F00FC014F0190E186E1350145E16
:1002C0000DE2010E155E0AE2165E08E2175E06E216
:1002D000172A162A152A1350142628D01250155EF4
:1002E00012E2010E165E0FE2175E0DE2172A162AC1
:1002F000125015261350142619E3152A17E1162A51
:1003000015E1172A13D011508009165E0EE2010E76
:10031000175E0BE2172A1150800916261250152677
:10032000E9E3162AE7E1172AE5D70380182E01D062
:100330000BD0D8901436153616361736D8900336AB
:10034000023601361936BAD719A006D0D890013234
:1003500002320332193202D0000635E019BE1ED037
:10036000D89014361536163617361350145E07E239
:10037000010E155E04E2165E02E2175E1AE31250E9
:10038000155E05E2010E165E02E2175E12E31150E1
:100390008009165E03E2010E175E0BE3032A09E1F2
:1003A000022A07E1012A05E1002A0DE001320232AA
:1003B00003320DC018F01150181A18AE02D0018E79
:1003C00006D0019E04D0006A016A026A036AA3EFA4
:1003D00003F0172C01D003D0400E186E01D0186A1C
:1003E000010E165C182618508009196E1A6A1B6EC9
:1003F00056DE12001550070A07E00B0A0AE0060A4B
:1004000010E0020A14E018D0010E166E176EE1DF3C
:1004100018D01A6A010E1B6E42DE020E166EFADD4D
:1004200010D0010E166E020E176ED3DF0AD01A6AB4
:10043000100E1B6E34DE05D0010E1A6E15C01BF0B7
:100440002EDE12000900F6CF09F0F7CF0AF0F5CF43
:1004500015F0D0DF09C0F6FF0AC0F7FF082EF2D76B
:10046000B6EF03F01550B608156E036A16C019F002
:10047000168ED890163217321832033202320132F9
:100480000032152EF6D719AE0BD0001E011E021E2B
:10049000031E002AD8B4012AD8B4022AD8B4032AE9
:1004A000C0EF02F0D8B203D0EA6A1D0EE96E006A0E
:1004B000016A026A036A1D6A1E6A1F6A206A1C506A
:1004C0001B101A1019102CE0200E216ED890153632
:1004D0001636173618361D361E361F3620361C5077
:1004E000205C08E11B501F5C05E11A501E5C02E114
:1004F00019501D5C0FE319501D5E1A50D8A01A3C0C
:100500001E5E1B50D8A01B3C1F5E1C50D8A01C3C7C
:10051000205ED8800036013602360336212ED6D72B
:100520001DC0EFFF1EC0ECFF1FC0ECFF20C0ECFFA2
:100530001200E9500D6E0C500F6E19E00BC018F050
:100540000AC017F009C016F008C015F01C6A1B6A33
:10055000200E1A6E820E196E15DE03C00BF002C05B
:100560000AF001C009F000C008F00F2EE7D70BC059
:1005700018F00AC017F009C016F008C015F072D7BD
:1005800003C00BF002C00AF001C009F000C008F07F
:100590000BAE0DD00D060D8A081E091E0A1E0B1E7D
:1005A000082AD8B4092AD8B40A2AD8B40B2A3B0E90
:1005B000146E9A0E136ECA0E126E116A0A0E0F6E28
:1005C0000C50D8B40D2AD882EA6A080EE96E0BC026
:1005D00018F00AC017F009C016F008C015F014C0D2
:1005E0001CF013C01BF012C01AF011C019F05ADF32
:1005F000015000520FE10C280F5C0CE00D500CE094
:100600000F0B0F5C01E037E20DBE35D00DBC04D0FE
:10061000200E2DD0200E0D160DAA0CD00D9A0C50C8
:10062000D8A40D0600500D6E2D0E156EE3DE0D5094
:10063000006E0D6A0C500F5C0AE100500D6E2E0E1C
:10064000156ED8DE0D50006E200E0D16000E300E09
:100650000DAA0DD00D9A0C50D8A40D0600500D6EA9
:100660002D0E156EC7DE0D50006E0D6A300E002681
:1006700000C015F0BFDED89214C018F013C017F0F8
:1006800012C016F011C015F01C6A1B6A1A6A0A0E15
:10069000196E08DF03C014F002C013F001C012F09D
:1006A00000C011F00F2E8FD7C3EF03F0F86AD09E71
:1006B000C150C00B0F09C16E070EB46EC150C00B04
:1006C0000E09C16EC050C00B0609C06EC08EC2803C
:1006D00003D5320E166E9EDCC282C2B2FED7C4CFE4
:1006E00002F0C3CF01F0C4CF09F0C3CF08F0C4CFEC
:1006F0000BF0C3CF0AF02AD503C018F002C017F0E0
:1007000001C016F000C015F01C6A1B6A200E1A6E9C
:10071000810E196E37DD03C00BF002C00AF001C074
:1007200009F000C008F003C00FF002C00EF001C0D5
:100730000DF000C00CF0136AC00E126E7F0E116E29
:10074000880E106E98D503C007F002C006F001C0F5
:1007500005F000C004F0010E166E176E3ADE040EAE
:10076000F66E000EF76E0B0E086E6CD6890EE96EF3
:1007700007C00BF006C00AF005C009F004C008F07D
:10078000020E0C6ED6D6200E156E34DEA2D70300F4
:020000040030CA
:0E00000000C0261E0087A1000FC00FE00F40B9
:00000001FF
;PIC18F4550
;CRC=F59F  CREATED="25-mar.-22 16:40"
