:1000000003308A00D92B0000A006203B6F36F43065
:10001000EA32BD12661000003230840083130008FB
:10002000031920280130F800F701F70B1528F80B09
:1000300014284A30F700F70B1B281E28800B1228C3
:100040000800390EF039F7000F30080577048800F2
:10005000000008142B28081008000808F700080EF4
:100060000F39F80008008316081088100811831251
:1000700088100F3083160805F038880083120815A1
:100080000000081400002D207808B90008100000B6
:10009000081400002D207808B80008100F308316CF
:1000A000080588008312390EF700F030F70577084D
:1000B0003804F8007808B800B81B3928361C8810B6
:1000C000361888140000081100000810370EB80018
:1000D0000F30B8053808B900212037080F39B800AB
:1000E000B900212008002830A5000C30A6000130FE
:1000F000A7000630A8000810881008110F308316DA
:10010000080588000810881008110F308312B2000B
:100110000C200130A4002408033C031C9728033062
:10012000B90021200530B2000C20A40A8B2802302F
:10013000B90021200530B2000C20A4012408033CA2
:10014000031CAE2825302407840083130008A9006F
:10015000B6012908B7003320A40A9E288A110A1282
:10016000F12B8E30F7002708F8002608F900FA0175
:10017000F808031DC5287908F800F9010830F702CE
:10018000F808031DC528F701CD280310F81BCC285B
:10019000F90DF80DF703C528F8138A110A12062C79
:1001A000310803194029B900350803194029B90756
:1001B0000318E1287F30B902031C402903194029A4
:1001C000E5288130B907031840293908F700F801FC
:1001D000F901FA013208BD00BD173308BC0034082C
:1001E000BB001830B900BA013B1C0E293808FA07C9
:1001F000031C0029F90A031D0029F80A0319BA177C
:100200003708F907031C0729F80A0319BA17360833
:10021000B300B3173308F8070318BA17BA0DF80C70
:10022000F90CFA0CBD0CBC0CBB0C0310B90BF32879
:100230000130F70703184029F81B2529BD0DFA0DD9
:10024000F90DF80DF70303194029BD1F3629FA0AE5
:10025000031D3629F90A031D3629F80A031D36291C
:10026000F80CF90CFA0CF70A031940293208BA0005
:100270003608BA06BA1F3E29F8174429F81344294C
:10028000F701F801F901FA010800280803190A2A00
:10029000B4002C0803190A2AB402031C54297F3025
:1002A000B40703180A2A5A298130B402031C0A2A07
:1002B00003190A2A3408F700F801F901FA01B30119
:1002C0002908B200B2172A08B1002B08B000193073
:1002D000B4002F08B00203187D290130B1020318C1
:1002E0007D29B20203187D29B30203187D29B30AC0
:1002F000B20AB10A2F08B007AF292E08B1020318BD
:1003000098290130B20203189829B30203189829DA
:10031000B30AB20A2E08B1072F08B007031CAF2991
:10032000B10A031DAF29B20A031DAF29B30AAF29D1
:100330002D088038B2020318AE290130B302031829
:10034000AE29B30A2D088038B2072E08B107031C66
:100350008C29B20A031D8C29B30A8C297A14B40B98
:10036000B229BD290310B00DB10DB20DB30D0310AC
:10037000FA0DF90DF80DB50D6929351CC5290310C5
:10038000F80CF90CFA0CB50CC829F70303190A2A62
:10039000B51BF1290310B00DB10DB20DB30D2F082F
:1003A000B0020318DD290130B1020318DD29B202C1
:1003B0000318DD29B302031C002A2E08B10203181A
:1003C000E8290130B2020318E829B302031C002A0D
:1003D0002D088038B2020318F1290130B302031C42
:1003E000002AFA0A031D002AF90A031D002AF80A46
:1003F000031D002AF70A03190A2AF80CF90CFA0C53
:100400002908B4002D08B406B41F082AF8170E2ACC
:10041000F8130E2AF701F801F901FA018A110A12FC
:100420002C2C330B142A172A4030B400182AB4019C
:1004300001303202B40734088038B500B6013508FF
:10044000B700332008003108073A0319312A0B3A64
:100450000319362A063A03193E2A023A0319442A96
:10046000492A0130B200B30011224E2AB6010130F0
:10047000B70033200230B2000C204E2A0130B20007
:100480000230B30011224E2AB6011030B7003320DB
:100490004E2A0130B6003108B700332008000B089F
:1004A000A5008B13831603178C170C140000000093
:1004B00083120313A51B8B170318862A03170C0836
:1004C0007F390313A50003170D080313A6000317B4
:1004D0000F080313A7002508B100232226080317DD
:1004E0008D000313270803178F0003130B08A800C0
:1004F0008B13831603178C170C1400000000831253
:100500000313A81B8B17A40B862AA52A03170C0D0F
:100510000E0D7F390313A50003170D080313A60062
:1005200003170F080313A7002508B100232226088C
:1005300003178D000313270803178F008D0A031973
:100540008F0A03100313A40B4F2A8A110A12422C9C
:100550008318AD2A393084008313F701F801F901BB
:10056000FA01B901BA01BB01BC01380837043604ED
:1005700035040319EB2A2030BD000310B10DB20D74
:10058000B30DB40DB90DBA0DBB0DBC0D38083C024E
:10059000031DD42A37083B02031DD42A36083A0229
:1005A000031DD42A35083902031CE52A3508B9028F
:1005B0003608031C360FBA023708031C370FBB027C
:1005C0003808031C380FBC020314F70DF80DF90DA1
:1005D000FA0DBD0BBD2A39088000840A3A08800054
:1005E000840A3B088000840A3C0880000800040854
:1005F000A9002808AB000319162B2708B400260809
:10060000B3002508B2002408B100B801B7012030BA
:10061000B6008230B500D0207A08A7007908A6007D
:100620007808A5007708A400AB0BFD2A2708B400C2
:100630002608B3002508B2002408B1003108B63CF2
:10064000B100FA013208B500B2170310B20CB30CB6
:10065000B40CFA0CF90CF80CF70CB10B252BB51FE8
:100660003C2BF709F809F909FA09F70A0319F80AFE
:100670000319F90A0319FA0A7A08A7007908A600EB
:100680007808A5007708A400A71F532BA903A91673
:10069000A409A509A609A709A40A0319A50A03190B
:1006A000A60A0319A70A3B30B0009A30AF00CA303F
:1006B000AE00AD010A30AB0028080319A90A831463
:1006C0002430840083132708B4002608B3002508CB
:1006D000B2002408B1003008B8002F08B7002E0877
:1006E000B6002D08B500A8227808F708031D8B2B4B
:1006F000280A2B0203198B2B290803198D2B0F397C
:100700002B020319852B0318BD2BA91BBD2B291BFD
:100710008D2B2030B92B2030A905A91E9B2BA912A7
:100720002808031DA9037708A9002D30B100232252
:100730002908F700A90128082B02031DA92B770817
:10074000A9002E30B10023222908F7002030A90586
:1007500000303030A91EB92BA9122808031DA903A7
:100760007708A9002D30B10023222908F700A9013C
:100770003030F7077708B100232283103008B40027
:100780002F08B3002E08B2002D08B100B801B70140
:10079000B6010A30B500A8227A08B0007908AF0087
:1007A0007808AE007708AD00AB0B5F2B8A110A12F8
:1007B0004F2C03081F39830083161F149F141F1525
:1007C0009F1107309C0083131F149F141F159F1542
:1007D0001F1383121F179F1783169F1783121F144F
:1007E00073283230B2000C201F151F19F52B1E087C
:1007F000F90083161E08F80079088312A50078080E
:10080000A4002508A7007808A600B1287A08B4003B
:100810007908B3007808B2007708B100B801B701D1
:10082000B6017F30B500D0207A08A7007908A6006D
:100830007808A5007708A4007A08AB007908AA0018
:100840007808A9007708A800AF01C030AE007F305B
:10085000AD008830AC0045297A08A3007908A200D1
:100860007808A1007708A0000130B200B30011227F
:10087000043003178D0000308F0003100B3003137A
:10088000A4004F2A893084002308A7002208A6006C
:100890002108A5002008A4000230A800F72A203073
:0808A000B1002322F12B6300DB
:02400E00713F00
:00000001FF
;PIC16F877A
;CRC=2E68  CREATED="28-ago.-24 16:23"
