:1000000003308A00D72B0000A006203AE536F01E08
:1000100025332000373084008313000803191E287D
:100020000130F800F701F70B1328F80B12284A30BB
:10003000F700F70B19281C28800B102808003E0E2B
:10004000F039F7000F300805770488000000081425
:100050002928081008000808F700080E0F39F800D2
:1000600008008316081088100811831288100F30BA
:1000700083160805F038880083120815000008145C
:1000800000002B207808BE000810000008140000B3
:100090002B207808BD0008100F3083160805880053
:1000A00083123E0EF700F030F70577083D04F800A4
:1000B0007808BD00BD1B37283B1C88103B188814EE
:1000C00000000811000008103C0EBD000F30BD05F7
:1000D0003D08BE001F203C080F39BD00BE001F2098
:1000E00008002830A6000C30A7000130A800063018
:1000F000A9000810881008110F3083160805880021
:100100000810881008110F308312B7000A20013040
:10011000A5002508033C031C95280330BE001F20C2
:100120000530B7000A20A50A89280230BE001F202A
:100130000530B7000A20A5012508033C031CAC28A4
:1001400026302507840083130008AA00BB012A0873
:10015000BC003120A50A9C288A110A12F12B8E308E
:10016000F7002808F8002708F900FA01F808031D2D
:10017000C3287908F800F9010830F702F808031DD0
:10018000C328F701CB280310F81BCA28F90DF80D76
:10019000F703C328F8138A110A12082C360803192A
:1001A0003E29BE003A0803193E29BE070318DF287E
:1001B0007F30BE02031C3E2903193E29E32881300B
:1001C000BE0703183E293E08F700F801F901FA01BD
:1001D0003708C200C2173808C1003908C0001830FB
:1001E000BE00BF01401C0C293D08FA07031CFE2875
:1001F000F90A031DFE28F80A0319BF173C08F9077E
:10020000031C0529F80A0319BF173B08B800B817E3
:100210003808F8070318BF17BF0DF80CF90CFA0CD3
:10022000C20CC10CC00C0310BE0BF1280130F70743
:1002300003183E29F81B2329C20DFA0DF90DF80DFC
:10024000F70303193E29C21F3429FA0A031D342972
:10025000F90A031D3429F80A031D3429F80CF90C96
:10026000FA0CF70A03193E293708BF003B08BF06FE
:10027000BF1F3C29F8174229F8134229F701F8015A
:10028000F901FA01080029080319082AB5002D0808
:100290000319082AB502031C52297F30B507031839
:1002A000082A58298130B502031C082A0319082A94
:1002B0003508F700F801F901FA01B4012A08B30082
:1002C000B3172B08B2002C08B1001930B500300864
:1002D000B10203187B290130B20203187B29B30253
:1002E00003187B29B40203187B29B40AB30AB20AA3
:1002F0003008B107AD292F08B20203189629013042
:10030000B30203189629B40203189629B40AB30A53
:100310002F08B2073008B107031CAD29B20A031D2C
:10032000AD29B30A031DAD29B40AAD292E088038C2
:10033000B3020318AC290130B4020318AC29B40A83
:100340002E088038B3072F08B207031C8A29B30A86
:10035000031D8A29B40A8A297A14B50BB029BB294E
:100360000310B10DB20DB30DB40D0310FA0DF90D5C
:10037000F80DB60D6729361CC3290310F80CF90CCB
:10038000FA0CB60CC629F7030319082AB61BEF2985
:100390000310B10DB20DB30DB40D3008B102031846
:1003A000DB290130B2020318DB29B3020318DB2971
:1003B000B402031CFE292F08B2020318E6290130FB
:1003C000B3020318E629B402031CFE292E08803864
:1003D000B3020318EF290130B402031CFE29FA0A04
:1003E000031DFE29F90A031DFE29F80A031DFE2933
:1003F000F70A0319082AF80CF90CFA0C2A08B500B8
:100400002E08B506B51F062AF8170C2AF8130C2A71
:10041000F701F801F901FA018A110A122F2C380BA1
:10042000122A152A4030B900162AB90101303702C4
:10043000B90739088038BA00BB013A08BC0031203E
:1004400008003608073A03192F2A0B3A0319342AF1
:10045000063A03193C2A023A0319422A472A013074
:10046000B700B8000F224C2ABB010130BC0031207C
:100470000230B7000A204C2A0130B7000230B80021
:100480000F224C2ABB011030BC0031204C2A013015
:10049000BB003608BC00312008000B08AA008B13F3
:1004A000831603178C170C1400000000831203132B
:1004B000AA1B8B170318842A03170C087F39031310
:1004C000AA0003170D080313AB0003170F0803134B
:1004D000AC002A08B60021222B0803178D00031355
:1004E0002C0803178F0003130B08AD008B13831622
:1004F00003178C170C140000000083120313AD1BAC
:100500008B17A90B842AA32A03170C0D0E0D7F3914
:100510000313AA0003170D080313AB0003170F08FA
:100520000313AC002A08B60021222B0803178D0004
:1005300003132C0803178F008D0A03198F0A031069
:100540000313A90B4D2A8A110A125C2C8318AB2ABB
:100550003E3084008313F701F801F901FA01BE016E
:10056000BF01C001C1013D083C043B043A0403192A
:10057000E92A2030C2000310B60DB70DB80DB90D31
:10058000BE0DBF0DC00DC10D3D084102031DD22A95
:100590003C084002031DD22A3B083F02031DD22A19
:1005A0003A083E02031CE32A3A08BE023B08031C39
:1005B0003B0FBF023C08031C3C0FC0023D08031C5C
:1005C0003D0FC1020314F70DF80DF90DFA0DC20B22
:1005D000BB2A3E088000840A3F088000840A400845
:1005E0008000840A4108800008000408AE002D083D
:1005F000B0000319142B2C08B9002B08B8002A08E6
:10060000B7002908B600BD01BC012030BB00823014
:10061000BA00CE207A08AC007908AB007808AA00AE
:100620007708A900B00BFB2A2C08B9002B08B800EA
:100630002A08B7002908B6003608B63CB600FA0109
:100640003708BA00B7170310B70CB80CB90CFA0C7E
:10065000F90CF80CF70CB60B232BBA1F3A2BF70941
:10066000F809F909FA09F70A0319F80A0319F90A46
:100670000319FA0A7A08AC007908AB007808AA00D6
:100680007708A900AC1F512BAE03AE16A909AA0921
:10069000AB09AC09A90A0319AA0A0319AB0A031981
:1006A000AC0A3B30B5009A30B400CA30B300B20196
:1006B0000A30B0002D080319AE0A831429308400D3
:1006C00083132C08B9002B08B8002A08B7002908A2
:1006D000B6003508BD003408BC003308BB00320842
:1006E000BA00A6227808F708031D892B2D0A3002CC
:1006F0000319892B2E0803198B2B0F39300203198C
:10070000832B0318BB2BAE1BBB2B2E1B8B2B20303C
:10071000B72B2030AE05AE1E992BAE122D08031D4F
:10072000AE037708AE002D30B60021222E08F70068
:10073000AE012D083002031DA72B7708AE002E3026
:10074000B60021222E08F7002030AE0500303030F0
:10075000AE1EB72BAE122D08031DAE037708AE00F8
:100760002D30B60021222E08F700AE013030F707F9
:100770007708B600212283103508B9003408B80084
:100780003308B7003208B600BD01BC01BB010A3016
:10079000BA00A6227A08B5007908B4007808B30038
:1007A0007708B200B00B5D2B8A110A12692C03087E
:1007B0001F398300FF30A00083161F149F141F15DC
:1007C0009F1107309C0083131F109F141F159F1546
:1007D0001F1783121F139F1783169F1783121F144F
:1007E00071280F30A0043230B7000A201F151F19DE
:1007F000F72B1E08F90083161E08F80079088312EB
:10080000A6007808A5002608A8007808A700AF2849
:100810007A08B9007908B8007808B7007708B600F8
:10082000BD01BC012030BB008130BA00CE207A0867
:10083000A8007908A7007808A6007708A5007A081C
:10084000AC007908AB007808AA007708A900B001CD
:10085000C030AF007F30AE008830AD0043297A0849
:10086000A4007908A3007808A2007708A10001304D
:10087000B700B8000F222408B9002308B8002208E6
:10088000B7002108B600BD01BC014830BB0085306F
:10089000BA00CE207A08A8007908A7007808A60038
:1008A0007708A500043003178D0000308F00031077
:1008B00008300313A9004D2A893084002808AC00B1
:1008C0002708AB002608AA002508A9000230AD00C1
:0C08D000F52A2030B6002122F32B630033
:02400E00713F00
:00000001FF
;PIC16F877A
;CRC=DD9B  CREATED="22-abr.-22 09:13"
