:1000000005308A001B2D0000A006202B61366F39B9
:10001000BD126610000037308400831300080319F6
:100020001F280130F800F701F70B1428F80B1328EC
:100030004A30F700F70B1A281D28800B11280800FA
:100040003E0EF039F7000F300805770488000000F5
:1000500008142A28081008000808F700080E0F39AD
:10006000F800080083160810881008118312881001
:100070000F3083160805F038880083120815000039
:10008000081400002C207808BE0008100000081496
:1000900000002C207808BD0008100F3083160805DA
:1000A000880083123E0EF700F030F70577083D0414
:1000B000F8007808BD00BD1B38283B1C88103B1891
:1000C000881400000811000008103C0EBD000F301D
:1000D000BD053D08BE0020203C080F39BD00BE0014
:1000E000202008002830A6000C30A7000130A8000E
:1000F0000630A9000810881008110F308316080573
:1001000088000810881008110F308312B7000B20E8
:100110000130A5002508033C031C96280330BE00CF
:1001200020200530B7000B20A50A8A280230BE0027
:1001300020200530B7000B20A5012508033C031C37
:10014000AD2826302507840083130008AA00BB01D0
:100150002A08BC003220A50A9D288A110A12352DD2
:100160008E30F7002808F8002708F900FA01F8088F
:10017000031DC4287908F800F9010830F702F808CF
:10018000031DC428F701CC280310F81BCB28F90D58
:10019000F80DF703C428F8138A110A124C2D3608FB
:1001A00003193F29BE003A0803193F29BE07031867
:1001B000E0287F30BE02031C3F2903193F29E428B1
:1001C0008130BE0703183F293E08F700F801F90106
:1001D000FA013708C200C2173808C1003908C00048
:1001E0001830BE00BF01401C0D293D08FA07031C52
:1001F000FF28F90A031DFF28F80A0319BF173C0856
:10020000F907031C0629F80A0319BF173B08B800B1
:10021000B8173808F8070318BF17BF0DF80CF90C0A
:10022000FA0CC20CC10CC00C0310BE0BF22801303A
:10023000F70703183F29F81B2429C20DFA0DF90D01
:10024000F80DF70303193F29C21F3529FA0A031DC8
:100250003529F90A031D3529F80A031D3529F80C3B
:10026000F90CFA0CF70A03193F293708BF003B08BD
:10027000BF06BF1F3D29F8174329F8134329F7018B
:10028000F801F901FA01080029080319092AB50043
:100290002D080319092AB502031C53297F30B5071D
:1002A0000318092A59298130B502031C092A0319A8
:1002B000092A3508F700F801F901FA01B4012A0802
:1002C000B300B3172B08B2002C08B1001930B500E9
:1002D0003008B10203187C290130B20203187C29CE
:1002E000B30203187C29B40203187C29B40AB30AA8
:1002F000B20A3008B107AE292F08B20203189729B5
:100300000130B30203189729B40203189729B40ADD
:10031000B30A2F08B2073008B107031CAE29B20A8E
:10032000031DAE29B30A031DAE29B40AAE292E0857
:100330008038B3020318AD290130B4020318AD2987
:10034000B40A2E088038B3072F08B207031C8B2984
:10035000B30A031D8B29B40A8B297A14B50BB12972
:10036000BC290310B10DB20DB30DB40D0310FA0D7D
:10037000F90DF80DB60D6829361CC4290310F80CC8
:10038000F90CFA0CB60CC729F7030319092AB61B96
:10039000F0290310B10DB20DB30DB40D3008B10248
:1003A0000318DC290130B2020318DC29B302031858
:1003B000DC29B402031CFF292F08B2020318E72925
:1003C0000130B3020318E729B402031CFF292E08E9
:1003D0008038B3020318F0290130B402031CFF294E
:1003E000FA0A031DFF29F90A031DFF29F80A031D54
:1003F000FF29F70A0319092AF80CF90CFA0C2A0844
:10040000B5002E08B506B51F072AF8170D2AF813F0
:100410000D2AF701F801F901FA018A110A12722D69
:10042000380B132A162A4030B900172AB9010130B7
:100430003702B90739088038BA00BB013A08BC0056
:100440003220080080308318AE06B301B4012A08B8
:10045000B2002E08B20629080319122BB100F700CA
:100460002D0803191B2BB1020319B72A031C752A87
:100470002E08B700B7172F08B6003008B500B40132
:100480000310B70CB60CB50CB40CB10B3F2AB21F5D
:100490004C2A33142F2B3310311033162C30840098
:1004A0008313442B3312B21B5F2A311C6A2AB70C08
:1004B000B60CB50CB40CF70A03192A2B6A2AB71B21
:1004C0006D2A0310B40DB50DB60DB70DF703031962
:1004D0002A2B5F2A3317D72A33132A08B200B21FF8
:1004E000732AB717232BB713232B2D08B100F7005E
:1004F0002908B1022A08B700B7172B08B6002C0844
:10050000B500B4010310B70CB60CB50CB40CB10BAC
:10051000812AB21F8E2AB3142F2BB3103110B316B9
:10052000303084008313442BB312B21BA12A311C38
:10053000AC2AB70CB60CB50CB40CF70A03192A2B6D
:10054000AC2AB71BAF2A0310B40DB50DB60DB70D0D
:10055000F70303192A2BA12AB317D72AB3132E089E
:10056000B200B21FB52AB717232BB713232B2E08BF
:10057000B700B7172F08B6003008B500B21FC42A5D
:10058000B71333152F2B3311B40131102C308400E5
:100590008313442BB21BED2A2A08B200311CD72A40
:1005A000B70CB60CB50CB40CF70A03192A2BB41F00
:1005B000E82AB50A031DE82AB60A031DE82AB70A85
:1005C000031DE82AB70CB60CB50CF70A03192A2B41
:1005D000331B6C2AB31BAE2A0C2B8030B706B71F17
:1005E000F52A2F2B2E08B200022B2A08B200B708DA
:1005F000031D022BB608031D022BB508031D022B99
:10060000F701232BB71B0C2B0310B40DB50DB60D42
:10061000B70DF70B022B2A2BB21F102BB717232B6A
:10062000B713232B2D08F7002E08B7002F08B600AC
:100630003008B500232B2908F7002A08B7002B083B
:10064000B6002C08B5003708F8003608F900350860
:10065000FA00622BF701F801F901FA01622BB401EB
:10066000B509B609B709B409B40A031D3D2BB50A8B
:10067000031D3D2BB60A0319B70A33184B2AB318CA
:100680008D2A3319C32AF22A0008B507031C4E2B02
:10069000B60A031D4E2BB70A031931148403000850
:1006A000B607031C562BB70A03193114840300083C
:1006B000801F803AB70703183114331A522AB31A2D
:1006C000942ACA2A8A110A12A52D3608073A031954
:1006D000732B0B3A0319782B063A0319802B023A35
:1006E0000319862B8B2B0130B700B8001022902BFA
:1006F000BB010130BC0032200230B7000B20902B30
:100700000130B7000230B8001022902BBB0110302E
:10071000BC003220902B0130BB003608BC003220D8
:1007200008000B08AA008B13831603178C170C14F0
:100730000000000083120313AA1B8B170318C82B99
:1007400003170C087F390313AA0003170D080313BE
:10075000AB0003170F080313AC002A08B60065238B
:100760002B0803178D0003132C0803178F000313A6
:100770000B08AD008B13831603178C170C140000A5
:10078000000083120313AD1B8B17A90BC82BE72B9B
:1007900003170C0D0E0D7F390313AA0003170D0864
:1007A0000313AB0003170F080313AC002A08B600AD
:1007B00065232B0803178D0003132C0803178F00E4
:1007C0008D0A03198F0A03100313A90B912B8A11A9
:1007D0000A12B72D8318EF2B3E3084008313F701E4
:1007E000F801F901FA01BE01BF01C001C1013D08D4
:1007F0003C043B043A0403192D2C2030C2000310A2
:10080000B60DB70DB80DB90DBE0DBF0DC00DC10DA4
:100810003D084102031D162C3C084002031D162C06
:100820003B083F02031D162C3A083E02031C272CEE
:100830003A08BE023B08031C3B0FBF023C08031CE6
:100840003C0FC0023D08031C3D0FC1020314F70D0D
:10085000F80DF90DFA0DC20BFF2B3E088000840A3B
:100860003F088000840A40088000840A4108800014
:1008700008000408AE002D08B0000319582C2C08FD
:10088000B9002B08B8002A08B7002908B600BD0136
:10089000BC012030BB008230BA00CF207A08AC0007
:1008A0007908AB007808AA007708A900B00B3F2CA4
:1008B0002C08B9002B08B8002A08B7002908B60090
:1008C0003608B63CB600FA013708BA00B71703106D
:1008D000B70CB80CB90CFA0CF90CF80CF70CB60BF9
:1008E000672CBA1F7E2CF709F809F909FA09F70AEB
:1008F0000319F80A0319F90A0319FA0A7A08AC006D
:100900007908AB007808AA007708A900AC1F952CDD
:10091000AE03AE16A909AA09AB09AC09A90A0319C5
:10092000AA0A0319AB0A0319AC0A3B30B5009A3086
:10093000B400CA30B300B2010A30B0002D08031968
:10094000AE0A83142930840083132C08B9002B08C5
:10095000B8002A08B7002908B6003508BD003408D9
:10096000BC003308BB003208BA00EA237808F70855
:10097000031DCD2C2D0A30020319CD2C2E0803198E
:10098000CF2C0F3930020319C72C0318FF2CAE1BD4
:10099000FF2C2E1BCF2C2030FB2C2030AE05AE1EA2
:1009A000DD2CAE122D08031DAE037708AE002D30EE
:1009B000B60065232E08F700AE012D083002031D96
:1009C000EB2C7708AE002E30B60065232E08F7001A
:1009D0002030AE0500303030AE1EFB2CAE122D089C
:1009E000031DAE037708AE002D30B60065232E0838
:1009F000F700AE013030F7077708B60065238310A3
:100A00003508B9003408B8003308B7003208B6001A
:100A1000BD01BC01BB010A30BA00EA237A08B50067
:100A20007908B4007808B3007708B200B00BA12CA5
:100A30008A110A12C42D03081F398300FF30A00059
:100A400083161F149F141F159F1107309C008313DA
:100A50001F149F141F159F151F1783121F139F1715
:100A600083169F1783121F1472280F30A004323090
:100A7000B7000B201F151F193B2D1E08F900831608
:100A80001E08F80079088312A6007808A500260839
:100A9000A8007808A700B0287A08B9007908B8003B
:100AA0007808B7007708B600BD01BC01BB017F30F4
:100AB000BA00CF207A08A8007908A7007808A60015
:100AC0007708A5007A08AC007908AB007808AA007E
:100AD0007708A900B001C030AF007F30AE00883089
:100AE000AD0044297A08A4007908A3007808A20080
:100AF0007708A1000130B700B80010222408B9001F
:100B00002308B8002208B7002108B600BD01BC01C7
:100B10004830BB008530BA00CF207A08A800790899
:100B2000A7007808A6007708A50083142808AC0061
:100B30002708AB002608AA002508A900B001AF01CC
:100B40004830AE008430AD00222A7A08A800790827
:100B5000A7007808A6007708A500043003178D00C9
:100B600000308F00031009300313A900912B893046
:100B700084002808AC002708AB002608AA00250836
:100B8000A9000230AD00392C2030B6006523372D86
:020B9000630000
:02400E00713F00
:00000001FF
;PIC16F877A
;CRC=D40F  CREATED="11-jul.-22 11:52"
