:1000000000308A0019280000223084008313000881
:10001000031918280530F800F701F70B0D28F80B25
:100020000C282E30F700F70B13281628800B0A280F
:10003000080003081F39830083161F149F141F151F
:100040009F1107309C0083138601AA30831286001B
:100050008316880183128800DE30831685008312A0
:1000600085120430A100FA30A2000420A10B33282D
:10007000DE3083168500831285160430A100FA3025
:0C008000A2000420A10B3F282C286300E4
:02400E00723FFF
:00000001FF
;PIC16F877A
;CRC=F697  CREATED="25-mar.-22 14:15"
