:1000000000308A0019280000223084008313000881
:10001000031918280530F800F701F70B0D28F80B25
:100020000C282E30F700F70B13281628800B0A280F
:10003000080003081F398300FF30A00083161F1437
:100040009F141F159F1107309C0083130030F80088
:10005000063883129200F930831692008312201121
:10006000200883168700831207110C3097003E305A
:1000700095001708CF392038970095011708CF3918
:1000800097000630A100FA30A2000420A10B4328FB
:10009000323095001708CF3997000630A100FA30AA
:1000A000A2000420A10B4F28573095001708CF3924
:1000B000203897000630A100FA30A2000420A10BDE
:1000C0005C287D3095001708CF3997000630A100D5
:1000D000FA30A2000420A10B6828BB309500170855
:1000E000CF39203897000630A100FA30A200042052
:1000F000A10B7528FA3095001708CF399700C83042
:08010000A20004203D28630069
:02400E00723FFF
:00000001FF
;PIC16F877A
;CRC=602E  CREATED="24-may.-23 15:02"
