:1000000002308A00072A00004535E53670366F1049
:10001000CC2144100A000C00C837EC30A0267537FC
:10002000E437200500010C00C837EC30A0267537F6
:10003000E43720050001E3376E3A61326F393A1038
:10004000A53A2000E3376E3A61326F393A10A53A8B
:1000500020002A3084008313000803193C2806304E
:10006000F800F701F70B3228F80B31287B30F70046
:10007000F70B3828800B2F280800310EF039F700D5
:100080000F30080577048800000008140330F700DB
:10009000F70B4828081008000808F700080E0F3969
:1000A000F8000800831608108810081183128810C1
:1000B0000F3083160805F0388800831208150000F9
:1000C000081400004C207808B10008100000081443
:1000D00069286A2800004C207808B00008100F300A
:1000E0008316080588008312310EF700F030F705FB
:1000F00077083004F8007808B000B01B58282E1C90
:1001000088102E18881400000811000008102F0E07
:10011000B0000F30B0053008B1003D202F080F3976
:10012000B000B1003D2008002830A5000C30A6002A
:100130000130A7000630A8000810881008110F3001
:100140008316080588000810881008110F308312E4
:10015000AA0029200130A4002408033C031CB8286D
:100160000330B1003D200530AA002920A40AAC28A4
:100170000230B1003D200530AA002920A401240846
:10018000033C031CCF282530240784008313000878
:10019000A900AE012908AF005220A40ABF288A1185
:1001A0000A12162A2B0BD528D8284030AC00D928A3
:1001B000AC0101302A02AC072C088038AD00AE013A
:1001C0002D08AF00522008002908073A0319F22829
:1001D0000B3A0319F728063A0319FF28023A0319C4
:1001E00005290A290130AA00AB00D2200F29AE014F
:1001F0000130AF0052200230AA0029200F2901301F
:10020000AA000230AB00D2200F29AE011030AF009F
:1002100052200F290130AE002908AF0052200800FB
:100220000B08A4008B13831603178C170C14000003
:10023000000083120313A41B8B1703170C087F39CC
:10024000031964290313A40003170D080313A50061
:1002500003170F080313A6002408A900E4202508AB
:1002600003178D000313260803178F0003130B08D1
:10027000A7008B13831603178C170C1400000000C3
:1002800083120313A71B8B1703170C0D0E0D7F3959
:10029000031964290313A40003170D080313A50011
:1002A00003170F080313A6002408A900E42025085B
:1002B00003178D000313260803178F008D0A0319F7
:1002C0008F0A031310290317031308000B08A60055
:1002D0008B13831603178C170C1400000000831275
:1002E0000313A61B8B1703189D2903170C087F39CE
:1002F0000313A60003170D080313A70003170F0825
:100300000313A8002608A900E420270803178D007E
:100310000313280803178F0003130B08A9008B137E
:10032000831603178C170C140000000083120313AC
:10033000A91B8B17A50B9D29BC2903170C0D0E0DAE
:100340007F390313A60003170D080313A700031733
:100350000F080313A8002608A900E42027080317A4
:100360008D000313280803178F008D0A03198F0AC5
:1003700003100313A50B662908002808F8012702BB
:100380000318C5292708F700D129F7010830A9006B
:10039000A70DF70D280877020318F700F80DA90B31
:1003A000C829080078082508A7006430A800BD21E6
:1003B0007708A50078083030031DE529A61CEC2934
:1003C000A619EC29261A2030E829A611261226148F
:1003D000F8077808A900E4202508A7000A30A8003B
:1003E000BD217708A50078083030031DFD29A61926
:1003F000012A261C012A261A2030F8077808A900AD
:10040000E4203030A5072508A900E42008000308EF
:100410001F398300A301A20183161F149F141F1507
:100420009F1107309C008313831294280430031714
:100430008D0000308F00031310210230A400FA3029
:10044000AA002920A40B1F2A0B3003178D000030AF
:100450008F00031310210C3003178D0000308F0024
:1004600003131021FA30A100A108031D602A1330E4
:1004700003178D0000308F00031310211430031771
:100480008D0000308F00031310210330AA000530C7
:10049000AB00D2202108A10AA4001B3003178D0055
:1004A00000308F0003100A300313A50066212408D2
:1004B000A5001B30A600D2212030A900E4207A2A12
:1004C0000330AA000530AB00D2202108A10AA40005
:1004D000223003178D0000308F0003100A30031301
:1004E000A50066212408A5001B30A600D2212030DB
:1004F000A900E4200430A400FA30AA002920A40BAB
:0C0500007C2A000083120313342A6300DD
:02400E00723FFF
:00000001FF
;PIC16F877A
;CRC=C36B  CREATED="06-jul.-24 10:02"
