:1000000002308A00162A00004535E53670366F103A
:10001000CC2144100A000C00C837EC30A0267537FC
:10002000E43720050001E3376E3A61326F393A1048
:100030002526751000003030840083130008031952
:100040002E280630F800F701F70B2428F80B232898
:100050007B30F700F70B2A28800B21280800370E89
:10006000F039F7000F300805770488000000081405
:100070000330F700F70B3A28081008000808F700CB
:10008000080E0F39F80008008316081088100811B0
:10009000831288100F3083160805F0388800831209
:1000A00008150000081400003E207808B70008106A
:1000B000000008145B285C2800003E207808B60089
:1000C00008100F308316080588008312370EF700DA
:1000D000F030F70577083604F8007808B600B61B4C
:1000E0004A28341C881034188814000008110000B5
:1000F0000810350EB6000F30B6053608B7002F20B1
:1001000035080F39B600B7002F2008002830A500A9
:100110000C30A6000130A7000630A8000810881097
:1001200008110F3083160805880008108810081180
:100130000F308312B0001B200130A4002408033CC0
:10014000031CAA280330B7002F200530B0001B2065
:10015000A40A9E280230B7002F200530B0001B20D3
:10016000A4012408033C031CC12825302407840073
:1001700083130008A900B4012908B5004420A40A8B
:10018000B1288A110A12252A310BC728CA28403003
:10019000B200CB28B20101303002B20732088038F9
:1001A000B300B4013308B500442008002F08073A13
:1001B0000319E4280B3A0319E928063A0319F12830
:1001C000023A0319F728FC280130B000B100C4201E
:1001D0000129B4010130B50044200230B0001B20D9
:1001E00001290130B0000230B100C4200129B4015E
:1001F0001030B500442001290130B4002F08B500AB
:10020000442008000B08A4008B13831603178C17D7
:100210000C140000000083120313A41B8B17031798
:100220000C087F39031956290313A40003170D087E
:100230000313A50003170F080313A6002408AF003B
:10024000D620250803178D000313260803178F00F7
:1002500003130B08A7008B13831603178C170C14BA
:100260000000000083120313A71B8B1703170C0D4C
:100270000E0D7F39031956290313A40003170D0827
:100280000313A50003170F080313A6002408AF00EB
:10029000D620250803178D000313260803178F00A7
:1002A0008D0A03198F0A0313022903170313080089
:1002B0000B08A7008B13831603178C170C14000070
:1002C000000083120313A71B8B1703188F29031732
:1002D0000C087F390313A70003170D080313A800A8
:1002E00003170F080313A9002708AF00D62028081A
:1002F00003178D000313290803178F0003130B083E
:10030000AA008B13831603178C170C14000000002F
:1003100083120313AA1B8B17A60B8F29AE29031771
:100320000C0D0E0D7F390313A70003170D080313DF
:10033000A80003170F080313A9002708AF00D62051
:10034000280803178D000313290803178F008D0A4F
:1003500003198F0A03100313A60B58298A110A12D6
:100360005C2AAE010408AD002E10831B2E14270E4C
:10037000F038A900A907E23EAA00323EAC002708E7
:100380000F39AA07AA07AC07E93EAB00AB07AB07DA
:10039000260E0F39AB07AC07AB0DAC0DAC09AC0D9D
:1003A00026080F39AC07A90D0730A8000A30AC07A2
:1003B000AB03031CD729AB07AA03031CDB29AA073D
:1003C000A903031CDF29A907A803031CE32928307C
:1003D0008400831307302D052D1384072C3004026D
:1003E00003192D170008F700031DFE292D1BFE29F8
:1003F0002D1A102AAD19FE292030012AAD152D1213
:100400003030F707A7010408A6002710831B271424
:100410007708AF00D6202608840083132718831797
:10042000840A2D1FEE298A110A12632A03081F3934
:100430008300A301A20183161F149F141F159F118F
:1004400007309C00831383128628043003178D0025
:1004500000308F00031302210230A400FA30B000F4
:100460001B20A40B2E2A0B3003178D0000308F00A9
:10047000031302210C3003178D0000308F0003138B
:100480000221A101FA30A0000330B0000530B10014
:10049000C4202108FA002008A00A0319A10AA40018
:1004A0007A08A500133003178D0000308F00031069
:1004B0000A300313A6005829103084002508A7002D
:1004C0002408A600B1292030AF00D6200430A400B3
:1004D000FA30B0001B20A40B682A0000831203131B
:0404E000442A630047
:02400E00723FFF
:00000001FF
;PIC16F877A
;CRC=F4C5  CREATED="06-feb.-25 13:58"
