:1000000001308A00FC2900004535E53670366F1056
:10001000CC2144100A000C00C837EC30A0267537FC
:10002000E43720050001E3376E3A61326F393A1048
:10003000A53A20002A3084008313000803192D28D4
:100040000630F800F701F70B2328F80B22287B3045
:10005000F700F70B2928800B20280800310EF03913
:10006000F7000F30080577048800000008140330FB
:10007000F700F70B3928081008000808F700080EE9
:100080000F39F80008008316081088100811831231
:1000900088100F3083160805F03888008312081581
:1000A0000000081400003D207808B100081000008E
:1000B00008145A285B2800003D207808B00008107A
:1000C0000F308316080588008312310EF700F030D8
:1000D000F70577083004F8007808B000B01B49280D
:1000E0002E1C88102E18881400000811000008101B
:1000F0002F0EB0000F30B0053008B1002E202F08B1
:100100000F39B000B1002E2008002830A5000C30B7
:10011000A6000130A7000630A800081088100811BA
:100120000F308316080588000810881008110F305A
:100130008312AA001A200130A4002408033C031CE7
:10014000A9280330B1002E200530AA001A20A40AE5
:100150009D280230B1002E200530AA001A20A401EB
:100160002408033C031CC028253024078400831383
:100170000008A900AE012908AF004320A40AB02856
:100180008A110A12132A2B0BC628C9284030AC004A
:10019000CA28AC0101302A02AC072C088038AD0017
:1001A000AE012D08AF00432008002908073A0319C3
:1001B000E3280B3A0319E828063A0319F028023A13
:1001C0000319F628FB280130AA00AB00C320002940
:1001D000AE010130AF0043200230AA001A200029EE
:1001E0000130AA000230AB00C3200029AE0110305C
:1001F000AF00432000290130AE002908AF004320A2
:1002000008000B08A4008B13831603178C170C141B
:100210000000000083120313A41B8B1703170C08A4
:100220007F39031955290313A40003170D0803137D
:10023000A50003170F080313A6002408A900D52062
:10024000250803178D000313260803178F000313D7
:100250000B08A7008B13831603178C170C140000D0
:10026000000083120313A71B8B1703170C0D0E0D31
:100270007F39031955290313A40003170D0803132D
:10028000A50003170F080313A6002408A900D52012
:10029000250803178D000313260803178F008D0A06
:1002A00003198F0A031301290317031308000B080E
:1002B000A6008B13831603178C170C140000000084
:1002C00083120313A61B8B1703188E2903170C0820
:1002D0007F390313A60003170D080313A7000317A4
:1002E0000F080313A8002608A900D5202708031724
:1002F0008D000313280803178F0003130B08A900B0
:100300008B13831603178C170C1400000000831244
:100310000313A91B8B17A50B8E29AD2903170C0DF1
:100320000E0D7F390313A60003170D080313A70052
:1003300003170F080313A8002608A900D5202708D3
:1003400003178D000313280803178F008D0A031964
:100350008F0A03100313A50B57298A110A12482A82
:100360002808F80127020318B8292708F700C4292C
:10037000F7010830A900A70DF70D28087702031828
:10038000F700F80DA90BBB29080078082508A7007D
:100390006430A800B0217708A50078083030031D2C
:1003A000D829A61CDF29A619DF29261A2030DB2927
:1003B000A61126122614F8077808A900D5202508CA
:1003C000A7000A30A800B0217708A50078083030CF
:1003D000031DF029A619F429261CF429261A203019
:1003E000F8077808A900D5203030A5072508A9000E
:1003F000D5208A110A124D2A03081F398300813043
:1004000083169900A6309800903083129800A301BB
:10041000A20183161F149F141F159F1107309C0003
:10042000831383128528043003178D0000308F005A
:10043000031301211430A400FA30AA001A20A40BDF
:100440001C2A0B3003178D0000308F00031301218D
:100450000C3003178D0000308F0003130121FA3098
:10046000A100A0012008093C031C592A0330AA005E
:100470000530AB00C3202108A10AA40013300317E4
:100480008D0000308F0003100A300313A500572998
:100490002408A5001B30A600C5292030A900D520BE
:1004A0000430A400FA30AA001A20A40B522AA00A91
:0C04B000322A000083120313312A63007B
:02400E00723FFF
:00000001FF
;PIC16F877A
;CRC=72C9  CREATED="13-mar.-23 20:51"
