:1000000000308A0018280000243084008313000880
:10001000031917280630F800F701F70B0D28F80B25
:100020000C287B30F700F70B1328800B0A280800F8
:1000300003081F39830083161F149F141F159F1177
:1000400007309C00831303308312A200E830A10024
:10005000061D2F280130A200F430A10033280730FC
:10006000A200D030A1003F30831686008312061311
:1000700083168600831286172208A300A30AA3030F
:1000800003194628FF30A40004203F282108A400BB
:1000900004203F30831686008312061783168600DD
:1000A000831286132208A300A30AA30303195C2862
:1000B000FF30A400042055282108A400042028288B
:0200C0006300DB
:02400E00723FFF
:00000001FF
;PIC16F877A
;CRC=01DC  CREATED="30-ene.-25 13:32"
