:1000000001308A005529000049308400831300081C
:10001000031918280130F800F701F70B0D28F80B29
:100020000C284A30F700F70B13281628800B0A28F3
:100030000800500EF039F7000F30080577048800EB
:10004000000008142328081008000808F700080E0C
:100050000F39F80008008316081088100811831261
:1000600088100F3083160805F038880083120815B1
:1000700000000814000025207808D00008100000B7
:100080000814000025207808CF0008100F308316D0
:10009000080588008312500EF700F030F705770846
:1000A0004F04F8007808CF00CF1B31284D1C881072
:1000B0004D18881400000811000008104E0ECF00E3
:1000C0000F30CF054F08D00019204E080F39CF0050
:1000D000D000192008002830C2000C30C3000130C5
:1000E000C4000630C5000810881008110F308316B0
:1000F000080588000810881008110F308312C90005
:1001000004200130C1004108033C031C8F28033048
:10011000D00019200530C9000420C10A832802300C
:10012000D00019200530C9000420C1014108033C5A
:10013000031CA62842304107840083130008C60030
:10014000CD014608CE002B20C10A96288A110A123A
:100150009C294A0BAC28AF284030CB00B028CB01FB
:1001600001304902CB074B088038CC00CD014C0848
:10017000CE002B2008004808073A0319C9280B3A7B
:100180000319CE28063A0319D628023A0319DC28A7
:10019000E1280130C900CA00A920E628CD010130BC
:1001A000CE002B200230C9000420E6280130C9000F
:1001B0000230CA00A920E628CD011030CE002B2045
:1001C000E6280130CD004808CE002B200800490861
:1001D000F80148020318EF284808F700FB28F70148
:1001E0000830CA00C80DF70D490877020318F70058
:1001F000F80DCA0BF22808002030431E3030C4002E
:100200004208F700C21F0C29F709F70A7708C20055
:100210002D30C400C31743144208C8006430C9001D
:10022000E7207708C20030307807C5004208C800D0
:100230000A30C900E72030307707C7003030780730
:10024000C6004408F7003030450203192B29C314B7
:10025000C31B43153F294408C5002030C40030307B
:100260004602031937294314C31BC3143F29031D36
:100270004314031D3F294508C6002030C50043191B
:100280004629C318492943184C294F294408C80056
:10029000BB204508C800BB204608C800BB20470853
:1002A000C800BB208A110A12AE2903081F39830037
:1002B0000430A000A1013330A20083161F149F1444
:1002C0001F159F1107309C0083136A308312A3000F
:1002D0007530A4006130A5006E30A600A701A8010A
:1002E0007030A9006530AA006430AB007230AC00F9
:1002F0006F30AD00AE016A30AF006F30B0007330C8
:10030000B1006530B200B301B4016D30B5006130A9
:10031000B6007230B7006930B8006130B900BA0178
:100320006430BB006930BC006130BD006E30BE007F
:100330006130BF00C0016B28A1012108043C031CEF
:10034000B7290C30C800BB20233021078400831359
:100350000008C100C2001830C300FC280430C100EE
:10036000FA30C9000420C10BB029A10A9D299C299B
:02037000630028
:02400E00713F00
:00000001FF
;PIC16F877A
;CRC=EE69  CREATED="10-feb.-25 18:05"
