:10000000B5EF00F05375656E6120616C61726D61D2
:100010000000C69E9E960AC0C9FF020EC6BE05D04D
:100020009EA6FED7000EC5BC010E016E1200C69C36
:10003000C586C5B6FED700B0C59A00A0C58AC588DA
:10004000C5B8FED7C9CF01F012000BBE10D00F0EFD
:10005000006E0A3800160A0E005C03E2300E00261D
:1000600002D00B50002600509EA8FED7AD6E0F0E9A
:100070000A160A0E0A5C02E2300E02D00B9E0B50EA
:100080000A260A509EA8FED7AD6E1200C580C5B0E4
:10009000FED7D00E0A6EBDDF0A6ABBDFC582C5B2CD
:1000A000FED7D10E0A6EB5DF010E006EC0DF01C0B3
:1000B00005F0010E006EBBDF01C006F0006AB7DF7D
:1000C00001C007F0C584C5B4FED70D0E9EA8FED7AB
:1000D000AD6E07C00AF0570E0B6EB7DF3A0E9EA842
:1000E000FED7AD6E200E9EA8FED7AD6E06C00AF0FC
:1000F000570E0B6EAADF200E9EA8FED7AD6E3A0EED
:100100009EA8FED7AD6E05C00AF0570E0B6E9DDFA0
:10011000200E9EA8FED7AD6ED5EF00F0EA6A0B0E5A
:10012000E96EEF500EE0010E016E006A002EFED760
:10013000012EFBD74A0E006E002EFED700D0EF2E08
:10014000F2D7DAEF00F00900F5520DE0F6CF0AF031
:10015000F7CF0BF0F5509EA8FED7AD6E0AC0F6FFA4
:100160000BC0F7FFF0D7E7EF00F0F86AD09EB89623
:10017000190EAF6EA60EAC6E900EAB6E938293808E
:10018000020EC86E280EC66EC79EC79C096A086A12
:10019000C150C00B0F09C16E070EB46ED00E046EB5
:1001A000C150C00B0F09C16E71D7040E0A6EFA0E52
:1001B0000B6EB4D70A2EFBD70650490808E107504A
:1001C000160805E1040EF66E000EF76EBCD7ECD7EC
:0201D00003002A
:020000040030CA
:0E00000000C0261E0087A1000FC00FE00F40B9
:00000001FF
;PIC18F4550
;CRC=ADB0  CREATED="24-may.-23 11:10"
