:1000000058EF00F0C69E9E9608C0C9FF020EC6BEFD
:1000100010EF00F09EA60AEF00F0000EC5BC010E26
:10002000016E7EEF00F0C69CC586C5B6FED700B057
:10003000C59A00A0C58AC588C5B8FED7C9CF01F04A
:10004000120009BE10D00F0E006E083800160A0EFE
:10005000005C03E2300E002602D00950002600505A
:100060009EA8FED7AD6E0F0E08160A0E085C02E2BF
:10007000300E02D0099E0950082608509EA8FED7CF
:10008000AD6E94EF00F0EA6A090EE96EEF500EE0F3
:10009000010E016E006A002EFED7012EFBD74A0E1C
:1000A000006E002EFED700D0EF2EF2D799EF00F0B1
:1000B000F86AD09EB896190EAF6EA60EAC6E900E72
:1000C000AB6E93829380020EC86E280EC66EC79EDA
:1000D000C79CC150C00B0F09C16E070EB46ED00E85
:1000E000046EC150C00B0F09C16EC580C5B0FED7EC
:1000F000C582C5B2FED7D10E086E84D7010E006E40
:1001000092DF01C005F0010E006E8DDF01C006F028
:10011000006A89DF01C007F0C584C5B4FED705C0F9
:1001200008F0570E096E8DD7040E086EFA0E096E90
:0A013000AAD7082EFBD7DCD7030086
:020000040030CA
:0E00000000C0261E0087A1000FC00FE00F40B9
:00000001FF
;PIC18F4550
;CRC=8AD6  CREATED="14-mar.-22 14:42"
