:1000000001308A009929000080308318AA06AF01C8
:10001000B0012608AE002A08AE0625080319F52807
:10002000AD00F70029080319FE28AD0203199A282C
:1000300003181B2858282A08B300B3172B08B2004E
:100040002C08B100B0010310B30CB20CB10CB00C11
:10005000AD0B2228AE1F2F282F1412292F102D1080
:100060002F1628308400831328292F12AE1B422814
:100070002D1C4D28B30CB20CB10CB00CF70A0319AF
:100080000D294D28B31B50280310B00DB10DB20D32
:10009000B30DF70303190D2942282F17BA282F1380
:1000A0002608AE00AE1F5628B3170629B31306293B
:1000B0002908AD00F7002508AD022608B300B317E4
:1000C0002708B2002808B100B0010310B30CB20C2D
:1000D000B10CB00CAD0B6428AE1F7128AF141229FF
:1000E000AF102D10AF162C30840083132829AF12C7
:1000F000AE1B84282D1C8F28B30CB20CB10CB00C95
:10010000F70A03190D298F28B31B92280310B00D8D
:10011000B10DB20DB30DF70303190D298428AF17E4
:10012000BA28AF132A08AE00AE1F9828B3170629C5
:10013000B31306292A08B300B3172B08B2002C0802
:10014000B100AE1FA728B3132F1512292F11B0012C
:100150002D102830840083132829AE1BD0282608B0
:10016000AE002D1CBA28B30CB20CB10CB00CF70ABF
:1001700003190D29B01FCB28B10A031DCB28B20AE1
:10018000031DCB28B30A031DCB28B30CB20CB10C52
:10019000F70A03190D292F1B4F28AF1B9128EF28B1
:1001A0008030B306B31FD82812292A08AE00E528EC
:1001B0002608AE00B308031DE528B208031DE52894
:1001C000B108031DE528F7010629B31BEF2803102A
:1001D000B00DB10DB20DB30DF70BE5280D29AE1F13
:1001E000F328B3170629B31306292908F7002A08AC
:1001F000B3002B08B2002C08B10006292508F7002F
:100200002608B3002708B2002808B1003308F80018
:100210003208F9003108FA004729F701F801F9011D
:10022000FA014729B001B109B209B309B009B00A0E
:10023000031D2129B10A031D2129B20A031D212909
:10024000B30A2F182E28AF1870282F19A628D528E2
:100250000008B107031C3229B20A031D3229B30A70
:1002600003192D1484030008B207031C3A29B30AAA
:1002700003192D1484030008801B3F29803AB3071B
:1002800003182D142F1A3528AF1A7728AD288A1194
:100290000A12D5298E30F7002508F7022608F90042
:1002A0002708F800F917F708031961290310F9085E
:1002B000031D5D29F80803196129F90CF80CF70BE7
:1002C0005629A61F6829F809F909F80A0319F90A35
:1002D0008A110A12E6291030AB00F701FA01A80CC6
:1002E000A70C031C79292908F7070318FA0A2A081A
:1002F000FA07FA0CF70CF90CF80CAB0B6F298A1102
:100300000A12F22925308400831300080319962964
:100310000530F800F701F70B8B29F80B8A292E30EE
:10032000F700F70B91299429800B88298A110A126A
:10033000082A03081F398300A301A201A101A0011B
:10034000FF30A40083161F149F141F159F11073040
:100350009C008313023085000030F80006388312B9
:100360009200F93083169200831224112408831618
:100370008700831207110C30970095011708CF39B9
:100380009700831685148312851C082A831023087E
:10039000A8002208A7002108A6002008A500AC019B
:1003A000AB01AA017F30A90004287A08A3007908CC
:1003B000A2007808A1007708A0002308A80022085E
:1003C000A7002108A6002008A5004A297908A60050
:1003D0007808A5007908A8007808A700AA01643069
:1003E000A9006B297908A6007808A500A60CA50C21
:1003F000A60CA50CA60C25089500A60C260C3039D9
:10040000F7001708CF3977049700C830A500822974
:04041000C12963009B
:02400E00723FFF
:00000001FF
;PIC16F877A
;CRC=C4FB  CREATED="24-may.-23 15:46"
