:1000000001308A00CE2900002A152A152A152A1542
:100010002A152A152A152A152A152A152A152A15E8
:100020002A15000020102010C837EC30A0267537A4
:10003000E437201020102010201020102010200065
:100040002A152A152A152A152A152A152A152A15B8
:100050002A152A152A152A152A150001E539F43220
:10006000A03273106536203B61366F39203265103F
:10007000252664100A100D00C539633969316939C4
:10008000A0326E1065362038F532723A6F10F332B6
:10009000F234613600000B08A5008B13831603179A
:1000A0008C170C140000000083120313A51B8B1780
:1000B00003170C087F390319A1280313A5000317A0
:1000C0000D080313A60003170F080313A700250844
:1000D0000C1E68289900260803178D0003132708B3
:1000E00003178F0003130B08A8008B138316031745
:1000F0008C170C140000000083120313A81B8B172D
:1001000003170C0D0E0D7F390319A1280313A50049
:1001100003170D080313A60003170F080313A70006
:1001200025080C1E91289900260803178D0003133B
:10013000270803178F008D0A03198F0A03134B2812
:100140000317031308000B08A6008B13831603176D
:100150008C170C140000000083120313A61B8B17CE
:100160000318DB2803170C087F390313A6000317B5
:100170000D080313A70003170F080313A800260890
:100180000C1EC0289900270803178D0003132808A8
:1001900003178F0003130B08A9008B138316031793
:1001A0008C170C140000000083120313A91B8B177B
:1001B000A50BDB28FB2803170C0D0E0D7F3903134D
:1001C000A60003170D080313A70003170F08031356
:1001D000A80026080C1EEA289900270803178D009E
:1001E0000313280803178F008D0A03198F0A0310C1
:1001F0000313A50BA3280800AD010408AC002D10C3
:10020000831B2D14A61F0C29AC172C1EAC0AA509A4
:10021000A609A50A0319A60A260EF038A800A80701
:10022000E23EA900323EAB0026080F39A907A90714
:10023000AB07E93EAA00AA07AA07250E0F39AA07AD
:10024000AB07AA0DAB0DAB09AB0D25080F39AB07FA
:10025000A80D0730A7000A30AB07AA03031C2C29FE
:10026000AA07A903031C3029A907A803031C3429E2
:10027000A807A703031C38292730840083130730FD
:100280002C052C1384032C05031D4D292C1A840ADC
:100290002C1A4D292030F7006A2984072B300402DC
:1002A00003192C170008F700031D5E292C1B5E297B
:1002B0002C1A6E29AC195E2920306929AC1F6629D9
:1002C0002D30F70084032C13AC136A29AC152C12C3
:1002D0003030F70777080C1E6B299900840A2C1F11
:1002E0004E298A110A123B2A0B08A5008B1383168C
:1002F00003178C170C140000000083120313A51BB6
:100300008B1703170C087F390319CA290313A5009B
:1003100003170D080313A60003170F080313A70004
:1003200025080C1E91299900260803178D00031338
:10033000270803178F0003130B08A8008B138316DD
:1003400003178C170C140000000083120313A81B62
:100350008B1703170C0D0E0D7F390319CA290313D0
:10036000A50003170D080313A60003170F080313B6
:10037000A70025080C1EBA299900260803178D002E
:100380000313270803178F008D0A03198F0A03131D
:100390007429031703138A110A124C2A03081F3900
:1003A0008300831603178715083003139900023062
:1003B0009A00A6309800903083129800A401A301FF
:1003C000831603170908C039890003131F129F12EF
:1003D0000030031788008312870188018901831385
:1003E00030300313A100D430A000043003178D0077
:1003F00000308F0003134B200D300C1EFD29990097
:100400000A300C1E012A9900123003178D000030AB
:100410008F0003134B200D300C1E0C2A99000A305C
:100420000C1E102A9900203003178D0000308F0019
:1004300003134B200D300C1E1B2A99000A300C1E92
:100440001F2A99000A300C1E232A99000D300C1E19
:10045000272A99002E3003178D0000308F000310DB
:1004600014300313A500A320103084002108A60037
:100470002008A500FC28393003178D0000308F00BC
:10048000031404300313A500A3203C3003178D0090
:1004900000308F00031374298C1E4C2A1A08A20006
:0C04A00022080C1E512A99004C2A63000F
:04400E00E22FFF3F5F
:00000001FF
;PIC16F887
;CRC=37FF  CREATED="06-jul.-24 10:56"
