:1000000002308A00802A00002A152A152A152A158E
:100010002A152A152A152A152A152A152A152A15E8
:100020002A15000020102010C837EC30A0267537A4
:10003000E437201020102010201020102010200065
:100040002A152A152A152A152A152A152A152A15B8
:100050002A152A152A152A152A1500012A152A15E6
:100060002A152A152A152A152A152A152A152A1598
:100070002A152A152A15000020102010C837EC3048
:10008000A0267537E43720102010201020102010F3
:10009000201020002A152A152A152A152A152A1596
:1000A0002A152A152A152A152A152A152A15000196
:1000B000E539F432A03273106536A03774396F1009
:1000C000F03A6539F43720100A100D00E539F432A2
:1000D000A03273106536203B61366F3920326510CF
:1000E000252664100A100D00C53963396931693954
:1000F000A0326E1065362038F532723A6F10F33246
:10010000F234613600000B08A6008B138316031728
:100110008C170C140000000083120313A61B8B170E
:1001200003170C087F390319D9280313A6000317F6
:100130000D080313A70003170F080313A8002608D0
:100140000C1EA0289900270803178D000313280808
:1001500003178F0003130B08A9008B1383160317D3
:100160008C170C140000000083120313A91B8B17BB
:1001700003170C0D0E0D7F390319D9280313A600A0
:1001800003170D080313A70003170F080313A80094
:1001900026080C1EC9289900270803178D00031391
:1001A000280803178F008D0A03198F0A0313832869
:1001B00003170313080020102008831687008312FA
:1001C00007100830F800E4280000F817F528F813A5
:1001D000A90C03180714031C07107817F5287813C7
:1001E000F80BE828F3280000071408308400840B7B
:1001F000F7280000F81BE728781BEF2808000B08F9
:10020000A6008B13831603178C170C140000000034
:1002100083120313A61B8B1703170C087F390319CE
:1002200053290313A60003170D080313A700031790
:100230000F080313A8002608A900DB2027080317CE
:100240008D000313280803178F0003130B08A90060
:100250008B13831603178C170C14000000008312F5
:100260000313A91B8B1703170C0D0E0D7F390319F0
:1002700053290313A60003170D080313A700031740
:100280000F080313A8002608A900DB20270803177E
:100290008D000313280803178F008D0A03198F0A96
:1002A0000313FF280317031308000B08A7008B1381
:1002B000831603178C170C1400000000831203131D
:1002C000A71B8B1703188D2903170C087F390313FD
:1002D000A70003170D080313A80003170F08031343
:1002E000A90027080C1E72299900280803178D0001
:1002F0000313290803178F0003130B08AA008B139D
:10030000831603178C170C140000000083120313CC
:10031000AA1B8B17A60B8D29AD2903170C0D0E0DEB
:100320007F390313A70003170D080313A800031751
:100330000F080313A90027080C1E9C299900280800
:1003400003178D000313290803178F008D0A031963
:100350008F0A03100313A60B55290800AE010408E9
:10036000AD002E10831B2E14A71FBE29AD172D1E06
:10037000AD0AA609A709A60A0319A70A270EF0388D
:10038000A900A907E23EAA00323EAC0027080F39B7
:10039000AA07AA07AC07E93EAB00AB07AB07260EDE
:1003A0000F39AB07AC07AB0DAC0DAC09AC0D260893
:1003B0000F39AC07A90D0730A8000A30AC07AB0312
:1003C000031CDE29AB07AA03031CE229AA07A90321
:1003D000031CE629A907A803031CEA292830840086
:1003E000831307302D052D1384032D05031DFF29CD
:1003F0002D1A840A2D1AFF292030F7001C2A8407A1
:100400002C30040203192D170008F700031D102AD1
:100410002D1B102A2D1A202AAD19102A20301B2A34
:10042000AD1F182A2D30F70084032D13AD131C2A9D
:10043000AD152D123030F70777080C1E1D2A9900D4
:10044000840A2D1F002A8A110A12232B0B08A600EA
:100450008B13831603178C170C14000000008312F3
:100460000313A61B8B1703170C087F3903197C2A6B
:100470000313A60003170D080313A70003170F08A3
:100480000313A80026080C1E432A99002708031707
:100490008D000313280803178F0003130B08A9000E
:1004A0008B13831603178C170C14000000008312A3
:1004B0000313A91B8B1703170C0D0E0D7F3903199E
:1004C0007C2A0313A60003170D080313A7000317C4
:1004D0000F080313A80026080C1E6C2A9900270891
:1004E00003178D000313280803178F008D0A0319C3
:1004F0008F0A0313262A031703138A110A12342BB7
:1005000003081F3983008316031787150830031368
:10051000990002309A00A63098009030831298001B
:10052000FF30A000201020088316870083120714D4
:10053000A501A401831603170908C0398900031314
:100540001F129F1200300317880083128701880151
:100550008901831330300313A200D430A10004308A
:1005600003178D0000308F00031383200D300C1E05
:10057000B72A99000A300C1EBB2A990012300317C3
:100580008D0000308F00031383200D300C1EC62A0F
:1005900099000A300C1ECA2A9900203003178D00DA
:1005A00000308F00031383200D300C1ED52A9900D4
:1005B0000A300C1ED92A99002E3003178D00003006
:1005C0008F000313FF200D30A900DB200A30A900A3
:1005D000DB203C3003178D0000308F000313FF2019
:1005E0000D30A900DB200A30A900DB204A300317B8
:1005F0008D0000308F000313FF200D30A900DB2099
:100600000A30A900DB20583003178D0000308F001E
:100610000313FF200A300C1E0B2B99000D300C1E0B
:100620000F2B9900663003178D0000308F000310E8
:1006300014300313A6005521103084002208A700AF
:100640002108A600AE29713003178D0000308F00FD
:10065000031404300313A6005521743003178D00D2
:1006600000308F000313262A8C1E342B1A08A30097
:0A0670002308A900DB20342B6300EF
:04400E00E22FFF3F5F
:00000001FF
;PIC16F887
;CRC=908B  CREATED="19-feb.-25 12:32"
