:1000000000308A00FF2800002E308400831300088F
:10001000031918280130F800F701F70B0D28F80B29
:100020000C284A30F700F70B13281628800B0A28F3
:100030000800350EF039F7000F3008057704880006
:10004000000008142328081008000808F700080E0C
:100050000F39F80008008316081088100811831261
:1000600088100F3083160805F038880083120815B1
:1000700000000814000025207808B50008100000D2
:100080000814000025207808B40008100F308316EB
:10009000080588008312350EF700F030F705770861
:1000A0003404F8007808B400B41B3128321C8810DE
:1000B000321888140000081100000810330EB40034
:1000C0000F30B4053408B500192033080F39B400D7
:1000D000B500192008002830AA000C30AB00013010
:1000E000AC000630AD000810881008110F308316E0
:1000F000080588000810881008110F308312AE0020
:1001000004200130A9002908033C031C8F28033078
:10011000B50019200530AE000420A90A832802305A
:10012000B50019200530AE000420A9012908033CC0
:10013000031CA6282A302907840083130008AE0078
:10014000B2012E08B3002B20A90A96288A110A12A0
:100150001B292F0BAC28AF284030B000B028B001CD
:1001600001302E02B00730088038B100B2013108EA
:10017000B3002B2008002D08073A0319C9280B3AB1
:100180000319CE28063A0319D628023A0319DC28A7
:10019000E1280130AE00AF00A920E628B20101300D
:1001A000B3002B200230AE000420E6280130AE0060
:1001B0000230AF00A920E628B2011030B3002B2096
:1001C000E6280130B2002D08B3002B20080080087B
:1001D0000319FC28AC010408AB002C10831B2C1461
:1001E0000008AD00BB202B08840083132C18831754
:1001F000840A0319850AE7288A110A12302903089C
:100200001F398300A0010430A100A801A7018316B3
:100210001F149F141F159F1107309C0083136A3011
:100220008312A2007030A3006A30A4006D30A500D4
:100230006430A6006B28A0012008043C031C3C2964
:1002400022302007F800FA010318FA0A7808A900FA
:100250007A08AA007808840083137A188317E7289D
:100260000430A900FA30AE000420A90B32290C306A
:0C027000AD00BB20A00A1C291B29630064
:02400E00713F00
:00000001FF
;PIC16F877A
;CRC=AD90  CREATED="10-feb.-25 14:21"
