:1000000001308A00C12900004D30840083130008AC
:10001000031918280130F800F701F70B0D28F80B29
:100020000C284A30F700F70B13281628800B0A28F3
:100030000800540EF039F7000F30080577048800E7
:10004000000008142328081008000808F700080E0C
:100050000F39F80008008316081088100811831261
:1000600088100F3083160805F038880083120815B1
:1000700000000814000025207808D40008100000B3
:100080000814000025207808D30008100F308316CC
:10009000080588008312540EF700F030F705770842
:1000A0005304F8007808D300D31B3128511C881062
:1000B000511888140000081100000810520ED300D7
:1000C0000F30D3055308D400192052080F39D3003C
:1000D000D400192008002830C9000C30CA000130B3
:1000E000CB000630CC000810881008110F308316A2
:1000F000080588000810881008110F308312CD0001
:1001000004200130C8004808033C031C8F2803303A
:10011000D40019200530CD000420C80A83280230FD
:10012000D40019200530CD000420C8014808033C44
:10013000031CA62849304807840083130008CD001B
:10014000D1014D08D2002B20C80A96288A110A1224
:100150000A2AF801F901F701FA014F08031DB32833
:100160004E080319CD281030D0000310CC0DCD0D52
:10017000F70DFA0D4F087A02031DC0284E087702CA
:10018000031CC9284E08F702031CFA034F08FA02A1
:100190000314F80DF90DD00BB52808002508CC0084
:1001A0002408CB002308CA002208C9004130D0002F
:1001B000C630CF004E30CE006D30CD002030D5009F
:1001C000D101D201D301D4014C08FA004B08F90047
:1001D0004A08F8004908F7000310771CFD284D086D
:1001E000D1074E0803184E0FD2074F0803184F0FC0
:1001F000D30750080318500FD407D40CD30CD20CDB
:10020000D10CFA0CF90CF80CF70CD50BEC283930A2
:100210007707A2007808A300303003183130A30715
:100220007908A400003003180130A4077A08A5005B
:10023000003003180130A5072408F7002508F8004E
:10024000F901FA012508CB002408CA002508CD00D1
:100250002408CC007F30CF00FF30CE00A9207708E3
:10026000F8007A08F9007908CA007808C900790806
:10027000CD007808CC00CF014808CE00A92077082F
:10028000F8008A110A12122AF701F801480803102F
:100290004918F707F70CF80CC918F707F70CF80C12
:1002A0004919F707F70CF80CC919F707F70CF80C00
:1002B000491AF707F70CF80CC91AF707F70CF80CEE
:1002C000491BF707F70CF80CC91BF707F70CF80CDC
:1002D0008A110A12192A4E0B6E2971294030CF005B
:1002E0007229CF0101304D02CF074F088038D0006E
:1002F000D1015008D2002B2008004C08073A0319FE
:100300008B290B3A03199029063A03199829023AC6
:1003100003199E29A3290130CD00CE006B21A82905
:10032000D1010130D2002B200230CD000420A829B9
:100330000130CD000230CE006B21A829D101103050
:10034000D2002B20A8290130D1004C08D2002B204C
:10035000080080080319BE29CB010408CA004B100D
:10036000831B4B140008CC007D214A0884008313B2
:100370004B188317840A0319850AA9298A110A12BE
:10038000292A03081F398300A6010430A700C701EA
:10039000C60183161F149F141F159F1107309C0060
:1003A00083138312A001A1016A30A8007530A9004F
:1003B0006130AA006E30AB00AC01AD017030AE0010
:1003C0006530AF006430B0007230B1006F30B20001
:1003D000B3016A30B4006F30B5007330B6006530D9
:1003E000B700B801B9016D30BA006130BB0072309E
:1003F000BC006930BD006130BE00BF016430C00088
:100400006930C1006130C2006E30C3006130C40089
:10041000C5016B28A6012608043C031C352A0630BA
:10042000C800CE287808A7002708C8000630C900F1
:1004300044297808283EF800FA010318FA0A7808D7
:10044000C8007A08C9007808840083137A188317D3
:10045000A9290430C800FA30CD000420C80B2B2A8B
:0E0460000C30CC007D21A60A0B2A0A2A63006C
:02400E00713F00
:00000001FF
;PIC16F877A
;CRC=6F97  CREATED="12-feb.-25 12:43"
