:1000000001308A00EC290000FF00030E8301A100EB
:100010000A08A0008A010408A2007708A300780853
:10002000A4007908A5007A08A60003170D08031399
:10003000A70003170F080313A80003170C080313E6
:10004000A90003170E080313AA00831383128B1E43
:100050002B280B194C28220884002308F7002408B9
:10006000F8002508F9002608FA00270803178D0074
:100070000313280803178F000313290803178C00A4
:1000800003132A0803178E00031320088A00210E89
:100090008300FF0E7F0E09008A110A124F28AB035E
:1000A00002308100AB08031D58284C30AB00AC0A6D
:1000B0000B118A110A122B28F332671DBD1275002D
:1000C0003330840083130008031973280630F800C6
:1000D000F701F70B6928F80B68287B30F700F70B5E
:1000E0006F28800B662808003A0EF039F7000F30B1
:1000F000080577048800000008140330F700F70BA8
:100100007F28081008000808F700080E0F39F800CB
:1001100008008316081088100811831288100F3009
:1001200083160805F03888008312081500000814AB
:10013000000083207808BA00081000000814A028E6
:10014000A128000083207808B90008100F3083161A
:100150000805880083123A0EF700F030F70577089B
:100160003904F8007808B900B91B8F28371C8810AB
:10017000371888140000081100000810380EB90064
:100180000F30B9053908BA00742038080F39B900A2
:10019000BA00742008002830AE000C30AF000130E7
:1001A000B0000630B1000810881008110F30831617
:1001B000080588000810881008110F308312B3005A
:1001C00060200130AD002D08033C031CEF280330F4
:1001D000BA0074200530B3006020AD0AE328023075
:1001E000BA0074200530B3006020AD012D08033C37
:1001F000031C06292E302D07840083130008B2004B
:10020000B7013208B8008920AD0AF6288A110A120F
:10021000042A340B0C290F294030B5001029B501F0
:1002200001303302B50735088038B600B70136080B
:10023000B800892008003108F8013002031823298A
:100240003008F7002F29F7010830B200B00DF70D84
:10025000310877020318F700F80DB20B26290800C1
:100260003208073A03193E290B3A03194329063A83
:1002700003194B29023A0319512956290130B300B9
:10028000B40009215B29B7010130B8008920023090
:10029000B30060205B290130B3000230B4000921B3
:1002A0005B29B7011030B80089205B290130B70005
:1002B0003208B800892008000B08AF008B138316A2
:1002C00003178C170C140000000083120313AF1BDC
:1002D0008B170318932903170C087F390313AF00FA
:1002E00003170D080313B00003170F080313B10021
:1002F0002F08B2003021300803178D000313310896
:1003000003178F0003130B08B2008B138316031718
:100310008C170C140000000083120313B21B8B1700
:10032000AE0B9329B22903170C0D0E0D7F39031361
:10033000AF0003170D080313B00003170F080313D2
:10034000B1002F08B2003021300803178D000313CD
:10035000310803178F008D0A03198F0A0310031346
:10036000AE0B5C298A110A121A2A78082E08B000EE
:100370006430B1001B217708AE0078083030031DCF
:10038000C829AF1CCF29AF19CF292F1A2030CB296C
:10039000AF112F122F14F8077808B20030212E0861
:1003A000B0000A30B1001B217708AE007808303069
:1003B000031DE029AF19E4292F1CE4292F1A20304E
:1003C000F8077808B20030213030AE072E08B200AE
:1003D00030218A110A121F2A03081F3983004C306A
:1003E000AB0083161F149F141F159F1107309C002C
:1003F00083130108C039073881000230831281005D
:100400008B16C0308B04CB280330B3000230B4000D
:1004100009212C08B0003C30B1001B217708AD0049
:100420005C3003178D0000308F000310053003137C
:10043000AE005C292D08AE001B30AF00B529042AA0
:02044000630057
:02400E00723FFF
:00000001FF
;PIC16F877A
;CRC=89BD  CREATED="12-feb.-25 13:20"
